:0A0000000C9434000C9400000C94E2
:10000A0000000C9400000C9400000C9400000C9466
:10001A0000000C9400000C9400000C9400000C9456
:10002A0000000C9400000C9400000C9400000C9446
:10003A0000000C9400000C9400000C9400000C9436
:10004A0000000C9400000C9400003F0006005B00C6
:10005A004F0066006D007D0007007F006700F8947E
:10006A00EE27ECBBF1E0FBBFEBBFE5BF8DE0A2E002
:10007A00BB27ED938A95E9F780E094E0A0E6ED933B
:10008A000197E9F7EFE5EDBFE4E0EEBFC0E6D1E0A6
:10009A000C944F00649784E160E070E0E4E5F0E0DE
:1000AA0092D000E010E020E030E040E050E0E0E0F4
:1000BA00EBBBEFE7EABBEFE1E8BBE0E6E7BBE0E07A
:1000CA00E5BBEFE0E4BBE0E0E2BBEFE7E1BBE881E0
:1000DA00EBBBE2BBC59AB09906C0ACE2B1E09ED0D8
:1000EA0020E030E04ED0B19906C0ACE2B1E096D043
:1000FA0021E030E046D0B29906C0ACE2B1E08ED041
:10010A0022E030E03ED0B39906C0ACE2B1E086D03E
:10011A0023E030E036D0B49932C0ACE2B1E07ED010
:10012A00F901E01BF10BAF010024041605065CF48B
:10013A00042E052A39F0A89AA9982CD00F5F1F4FD0
:10014A002FD0F6CF0FC0FA01AFEFBFEF54D0AF01F7
:10015A00042E052A39F0A898A99A1CD001501040FB
:10016A001FD0F6CFA898A99829D0AB9A27D0AB98D8
:10017A00A0EDB7E053D0AA9AAB9820D0AB98ABCFFA
:10018A00FFCFF901DE01EE0FFF1FAE0FBF1FEC918B
:10019A00EBBB0895A0EABFE041D04150504008951A
:1001AA00F801DE01EE0FFF1FAE0FBF1FEC91E2BB9D
:1001BA00C69AA8ECB0E032D0C6980895A8EEB3E08B
:1001CA002DD0AA980895AF93BF93DB01AC0FBD1F42
:1001DA0005900D928A95E1F7BF91AF910895F19537
:1001EA00E195F0400895FA9FF02DEB9FF00DEA9FFC
:1001FA00E02DF10D089504D0F6DF0EF4F0DF089536
:10020A00E894F7FF02C0EBDF6894B7FF06C0B19528
:10021A00A195B04000F8039400FA0895109639F0B9
:10022A00A89584EF91E00197F1F71197C9F708951E
:00000001FF
