S01800006C63645F7370656369616C5F636861722E737265639C
S11300000C9434000C9451000C9451000C94510045
S11300100C9451000C9451000C9451000C94510018
S11300200C9451000C9451000C9451000C94510008
S11300300C9451000C9451000C9451000C945100F8
S11300400C9451000C9451000C9451000C945100E8
S11300500C9451000C9451000C9451000C945100D8
S11300600C9451000C94510011241FBECFEFD8E022
S1130070DEBFCDBF11E0A0E0B1E0E4E1F4E002C0F6
S113008005900D92A034B107D9F721E0A0E4B1E0C6
S113009001C01D92A034B207E1F70E94E7010C945D
S11300A008020C94000084B1876084B98AB1806F1F
S11300B08AB985B1887F85B98BB18F708BB9089562
S11300C08FE99FE00197F1F700C0000028982A9873
S11300D080E38BB9299AEFE1FEE43197F1F700C090
S11300E000002998EFE9FFE03197F1F700C0000024
S11300F028982A988BB9299AEFE1FEE43197F1F711
S113010000C000002998EFE9FFE03197F1F700C043
S1130110000028982A988BB9299A8FE19EE40197C8
S1130120F1F700C000002998EFE9FFE03197F1F7FB
S113013000C0000028982A9880E28BB9299A8FE1A0
S11301409EE40197F1F700C00000299808959BB13F
S11301509F709BB99BB1282F207F922B9BB9289825
S11301602A98299AEFE1FEE43197F1F700C00000E4
S113017029989BB19F709BB99BB18295807F892BF5
S11301808BB928982A98299A8FE19EE40197F1F770
S113019000C00000299808950E9460008FE99FE044
S11301A00197F1F700C0000088E20E94A70081E0F7
S11301B00E94A70086E00E94A7008CE00E94A7008E
S11301C080E80E94A7000895823071F018F481300D
S11301D031F00895833069F0843081F008958FE719
S11301E0860F0E94A70008958FEB860F0E94A70038
S11301F0089583E9860F0E94A700089583ED860F72
S11302000E94A700089581E00E94A7000895CF935B
S1130210C42F0E94E4008BB18F708BB98BB19C2FDB
S1130220907F892B8BB9289A2A98299A8FE19EE48A
S11302300197F1F700C0000029988BB18F708BB93A
S11302408BB1C295C07FC82BCBB9289A2A98299A1A
S11302508FE19EE40197F1F700C000002998CF9147
S113026008950F931F93CF93DF93D82FC62FFA01CE
S11302704081442369F08F010F5F1F4F6C2F8D2F36
S11302800E940701CF5FF80141918F014111F6CF20
S1130290DF91CF911F910F9108950F931F93CF93E7
S11302A0DF93883090F48B01880F880F880F805C6F
S11302B00E94A700E801085F1F4F499160E080E0B9
S11302C00E940701C017D107C1F7DF91CF911F9199
S11302D00F91089548E251E063E081E00E9431010A
S11302E02FEF87EA91E6215080409040E1F700C06B
S11302F000000E94030160E271E080E00E944D0171
S113030040E068E082E00E9407010895CF9345E34E
S113031051E063E081E00E9431012FEF87EA91E62A
S1130320215080409040E1F700C000000E9403018A
S113033068E171E081E00E944D0160E171E082E0DA
S11303400E944D0168E071E083E00E944D0160E08D
S113035071E084E00E944D01C1E08C2F83708130F4
S113036089F028F08230C9F0833011F12BC044E0C9
S11303706C2F81E00E94070144E06C2F82E00E9410
S1130380070120C041E06C2F81E00E94070141E099
S11303906C2F82E00E94070115C042E06C2F81E0BF
S11303A00E94070142E06C2F82E00E9407010AC00C
S11303B043E06C2F81E00E94070143E06C2F82E050
S11303C00E940701CF5FC13141F6CF9108950E9489
S11303D053000E94CC000E9403010E946A012FEF87
S11303E087EA91E6215080409040E1F700C0000088
S11303F00E9403010E9486012FEF87EA91E62150B3
S113040080409040E1F700C000000E940301FFCF4C
S1070410F894FFCF8A
S11304140000000001021C00000000001008070096
S11304241804020100000000030408100000000086
S11304341F1113161C101F00446973706C6179201A
S11304444C6F676F0053696E6520576176650000D1
S9030000FC
