:080000000C9487000C94000031
:100008000C9400000C9400000C9400000C94000068
:100018000C9400000C9400000C9400000C94000058
:100028000C9400000C9400000C9400000C94000048
:100038000C9400000C9400000C9400000C94000038
:100048000C9400000C9400000C9400002A4C4720EB
:10005800454C454354524F4E4943532A002D205393
:100068006176696E6720506F776572202D00544560
:100078004D503A002020437C2B7C2D7C005354416A
:100088005455533A4E4F524D414C0020002B0048D6
:100098004F542020202020004E4F524D414C20200C
:1000A80000434F4F4C2020202000110060015400D5
:1000B80011007101650006008201760009008801BF
:1000C8007C000E009101850002009F019300020050
:1000D800A10195000900A30197000900AC01A00047
:1000E8000900B501A9000200BE0193000200C00189
:1000F80074000900C20197000900CB01A0000900A3
:10010800D401A9000000F894EE27ECBBF1E0FBBF96
:10011800EBBFE5BF8DE0A2E0BB27ED938A95E9F739
:1001280080E094E0A0E6ED930197E9F7E2EBF0E0D8
:1001380085919591009761F0A591B59105901590DD
:10014800BF01F00105900D920197E1F7FB01F0CF97
:10015800EFE5EDBFE4E0EEBFC0E6D1E00C943E0170
:100168001A930A938D01D801EC91E03029F0AC91F3
:1001780072D00F5F1F4FF7CF099119910895EFEFD4
:10018800E7BBC298C098A2E3B0E078D1A0E25AD009
:100198004FD0A8E257D04CD0A6E054D049D0ACE01C
:1001A80051D0A2E31CD1A0E0B0E02ED0089545D1F3
:1001B800AD0110E000E030E0E4E6F0E04CD11E2FA5
:1001C800E4E6E19FF001DF01FA01EA1BFB0BDF0126
:1001D800EAE0F0E040D10E2FA4E61A02F001AE2FBB
:1001E800E42FEA1B2E2FAAE00A02F001A22FAE1B71
:1001F8003A2FA12FA05D2FD0A02FA05D2CD0A32F28
:10020800A05D29D021D112C01AD18D012C813D8148
:10021800022E032A11F4A05815D0E1E0F0E0E2170D
:10022800F30719F4A02FA0540DD010D126960895E5
:10023800C298A4E1B0E022D1C29AA4E1B0E01ED1F4
:10024800C29808951A931A2FE8B3E87FE8BBE12F04
:10025800E07FCCD00BC01A931A2FE8B3E97FE8BB34
:10026800C09AE12FE07FE160C1D0E160E8BBE0DF48
:100278001991089500E010E02BE130E0E7E0E2BBDF
:10028800E0E0E1BB809923C0A4E6B0E0F7D001E04C
:1002980010E075DFA0E6B1E063DFB0D0A1E7B1E020
:1002A8005FDFA8E8B3E1EAD0A1E0CCDFA2E8B1E0E3
:1002B80057DFD9017CDFA8E8B1E0A7D0A9E0B0E01A
:1002C800A3DFAFEDC8DF9AD0A1E9B1E049DF81999A
:1002D80006C0A1D021F42432E0E03E070CF03AC079
:1002E800A4E67DD0ACE0B0E08FDFAFE9B1E038DF65
:1002F800A4E675D0ACE0B0E087DFA1EAB1E085D034
:10030800A5E0B0E081DF2F5F3F4F8AD024F42F3182
:10031800E0E03E070CF404C089D0A3EAB1E019C0BC
:100328002F31E0E03E0724F42931E0E03E070CF4E9
:1003380004C07CD0ACEAB1E00CC02931E0E03E0753
:1003480024F42231E0E03E070CF404C06FD0A5EBA2
:10035800B1E006DF829906C05ED021F42331E0E0E7
:100368003E070CF43AC0A4E63AD0AEE0B0E04CDF69
:10037800AEEBB1E0F5DEA4E632D0AEE0B0E044DFAB
:10038800A0ECB1E042D0A5E0B0E03EDF2150304023
:1003980047D024F42F31E0E03E070CF404C046D0E7
:1003A800A2ECB1E019C02F31E0E03E0724F4293176
:1003B800E0E03E070CF404C039D0ABECB1E00CC06F
:1003C8002931E0E03E0724F42231E0E03E070CF456
:1003D80004C02CD0A4EDB1E0C3DE54CFFFCFB0E011
:1003E8004DD0E0E0F0E0FA93EA930895E8BB20DF0F
:1003F800E12FEF70A0E1EA02F0010895E1E0F0E0FA
:10040800FA93EA93A0E0B0E0FFCEAADEE0E0F0E0E5
:10041800FA93EA930895E1E0F0E0E017F107089510
:10042800D901C5DE2532E0E03E070895E1E0F0E0BD
:10043800FA93EA93A7E0B0E0E7CE5A934A933A9347
:100448002A931A930A9308955D814C813B812A81EE
:100458001981088108950024112490E1AA0FBB1F77
:10046800001C111C0E1A1F0A18F40E0E1F1E01C0C4
:10047800A1609A9599F7FD01D0010895109639F079
:10048800A89584EF91E00197F1F71197C9F70895BE
:00000001FF
