:0A0000000C9434000C9400000C94E2
:10000A0000000C9400000C9400000C9400000C9466
:10001A0000000C9400000C9400000C9400000C9456
:10002A0000000C9400000C9400000C9400000C9446
:10003A0000000C9400000C9400000C9400000C9436
:10004A0000000C9400000C9400003F0006005B00C6
:10005A004F0066006D007D0007007F006700F8947E
:10006A00EE27ECBBF1E0FBBFEBBFE5BF8DE0A2E002
:10007A00BB27ED938A95E9F780E094E0A0E6ED933B
:10008A000197E9F7EFE5EDBFE4E0EEBFC0E6D1E0A6
:10009A000C944F00649784E160E070E0E4E5F0E0DE
:1000AA0039D000E010E0E0E0E2BBEFEFE1BBE0E0D6
:1000BA00E5BBE1E4E4BBE3E0EBBBE0E0EABBE881FB
:1000CA00E2BBC99904C00A30E0E01E070CF005C083
:1000DA00C99BFECF0F5F1F4F14D0C89910C0002EC6
:1000EA00012A49F0A89AAE980CD0A8EEB3E01ED027
:1000FA0001501040F4CFA898AE98E881E2BBE1CF56
:10010A00FFCFF801DE01EE0FFF1FAE0FBF1FEC910C
:10011A00E2BB0895AF93BF93DB01AC0FBD1F0590FF
:10012A000D928A95E1F7BF91AF910895109639F033
:10013A00A89584EF91E00197F1F71197C9F708950F
:00000001FF
